:100000000C94AD000C94D5000C94D5000C94D50044
:100010000C94D5000C94D5000C94D5000C94D5000C
:100020000C94D5000C94D5000C945F050C94CE056F
:100030000C94D5000C94D5000C94D5000C94D500EC
:100040000C94D5000C94D5000C94D5000C94D500DC
:100050000C94D5000C94D5000C94D5000C94150587
:100060000C94D5000C94D5000C94D5000C94D500BC
:100070000C94D5000C94D5000C94D5000C94D500AC
:100080000C94D5000C94D5000C94D5000C94D5009C
:100090000C94D5000C94D5000C94D5000C94D5008C
:1000A0000C94D5000C9400080C94D500080B0002A9
:1000B0000202000009040000010202000005240001
:1000C0001001052401010104240206052406000193
:1000D0000705810310004009040100020A00000026
:1000E00007050202400000070583024000000403E8
:1000F000090412010002EF02014041233680000191
:100100000102030141726475696E6F204C4C43001B
:1001100041726475696E6F204C656F6E6172646FB9
:100120000005010902A1010901A1008501050919C4
:1001300001290315002501950375018102950175BB
:1001400005810305010930093109381581257F75BD
:100150000895038106C0C0006C0811241FBECFEFB4
:10016000DAE0DEBFCDBF11E0A0E0B1E0EEE3F3E105
:1001700002C005900D92A233B107D9F721E0A2E3A6
:10018000B1E001C01D92A73DB207E1F710E0CDEA52
:10019000D0E004C02197FE010E949709CC3AD10714
:1001A000C9F70E94F6080C949D090C940000609316
:1001B0005B0170935C0180935D0190935E0187EF1A
:1001C00094E090935A0180935901E1ECF0E01082A1
:1001D0001092C0001092C2001092C3001092C4008E
:1001E00088E480838CE790E09093580180935701D6
:1001F00080915701909158018093D1000895CF9339
:10020000DF93FC0181819091B301482F490F55275D
:10021000551F483051059CF5A281B381109709F50F
:100220002FEA31E03383228320812093B101809330
:10023000B2018091B401820F80832091B501A22F79
:10024000B091B6018A2F821B8917E8F481813D9114
:10025000C82FD0E0C45FDE4F38838F5F8183F2CF39
:10026000D90118962D913C91199721153105C1F7A7
:100270002FEA31E019963C932E931897D5CF80E062
:10028000DF91CF91089581E0FBCFFC018091560171
:10029000882311F13FB7F89482E08093E900209120
:1002A000F200822F90E01816190614F481E090E015
:1002B000882339F0289844E6409355014091F10095
:1002C0004083222339F02091F200211103C02BE654
:1002D0002093E8003FBF08958FEF9FEF0895CF93DD
:1002E000DF931F92CDB7DEB76983DC01ED91FC91FE
:1002F0000280F381E02D41E050E0BE016F5F7F4F4F
:1003000009950F90DF91CF91089583E08093E900E4
:100310008091F200882319F08AE38093E800089521
:10032000CF93DF931F92CDB7DEB7FC01848595850F
:1003300097FD08C02FEF3FEF358724870F90DF919F
:10034000CF910895CE0101960E944501019719F4BD
:10035000898190E0F3CF8FEF9FEFF0CF0F931F9342
:10036000CF93DF931F92CDB7DEB78C01FC0184855C
:10037000958597FF0BC0CE0101960E94450101971C
:1003800071F4898190E0F80195878487F80184856C
:1003900095850F90DF91CF911F910F9108958FEF69
:1003A0009FEFF1CFFC018485958597FD0BC09FB72A
:1003B000F89482E08093E9008091F2009FBF90E082
:1003C000019608959FB7F89482E08093E9008091A8
:1003D000F2009FBF90E008953FB7F89480915101DB
:1003E00090915201A0915301B091540126B5A89B60
:1003F00005C02F3F19F00196A11DB11D3FBFBA2FB7
:10040000A92F982F8827BC01CD01620F711D811D76
:10041000911D42E0660F771F881F991F4A95D1F7FB
:100420000895CF92DF92EF92FF920E94EC016B0150
:100430007C010E94EC016C197D098E099F09683EC0
:10044000734081059105A8F3FF90EF90DF90CF9066
:100450000895409146015091470120914401309107
:10046000450142175307B4F49091E8009570E1F309
:100470009091E80092FD19C08093F10080914601AF
:100480009091470101968F739927892B19F48EEF6C
:100490008093E800809146019091470101969093E6
:1004A00047018093460181E0089580E00895EF922E
:1004B000FF920F931F93CF93DF93F82E192FE62E01
:1004C000042F81E0860F880F0E94290283E00E949A
:1004D0002902CF2DD12FEC0EFD2EF11CCE15DF05FC
:1004E000B9F007FF13C0FE0184910E942902182F62
:1004F00080E00E942902812321968111EFCFDF91B4
:10050000CF911F910F91FF90EF9008958881EDCFCB
:1005100081E0F5CFDF92EF92FF920F931F93CF937D
:10052000DF93D82E8A01EB017B01E40EF51ECE1578
:10053000DF0559F0D7FE12C0FE0184910E94290206
:1005400021968111F4CF0FEF1FEFC801DF91CF91FA
:100550001F910F91FF90EF90DF9008958881EECF6B
:100560002FB7F89487708093E9009091E800892F65
:10057000807295FF04C09091F20080E4891B2FBF28
:10058000089583E00E94B00290E008957F928F92D8
:100590009F92AF92BF92CF92DF92EF92FF920F9312
:1005A0001F93CF93DF93C82E8B017A018091560160
:1005B000811110C08FEF9FEFDF91CF911F910F91AD
:1005C000FF90EF90DF90CF90BF90AF909F908F9073
:1005D0007F90089580914A0180FF05C08091E000DE
:1005E00082608093E000CE2DDF2DD12C8AEFB82ED3
:1005F0008C2D8770982E8C2D8072882E8C2D807477
:10060000782E9AE3A92E209719F4DD2009F44EC024
:100610008C2D0E94B002811106C0BA94BB2051F209
:100620000E941102F0CF8C171D0611F00CF08C2FD8
:100630009FB7F8949092E9002091E80025FD02C050
:100640009FBFE1CF282F30E0C21BD30B882029F0B9
:100650008150A0F01092F100FBCFF801C7FC0AC056
:10066000815050F041914093F100FACF4491409372
:10067000F10031968150D0F7020F131FDD2021F0D9
:10068000A092E800D12CDCCF8091E80085FD07C066
:10069000A092E800DD24D394209791F2F3CF209725
:1006A00079F6772069F2A092E800CACF5D9884E6D7
:1006B00080934901C70180CFCF93DF93EC018091F4
:1006C0000B01882331F083E00E94C6021816190638
:1006D00034F081E090E09B838A8380E090E0DF91BA
:1006E000CF910895615030F02091F100FC012083FA
:1006F0000196F8CF289884E680935501089580915B
:100700003C0181110DC082E08093380184E0809328
:10071000390110923B0110923A0181E080933C0133
:1007200088E391E008951F93CF93DF9300D000D02A
:100730001F92CDB7DEB79091D60199838A831B8231
:100740001C828091C00181112AC011E01093B30175
:100750001093B40189EB91E09093B6018093B501B9
:100760001092B8011092B70189E291E09093B00124
:100770008093AF011092BB011092BA011092BD019B
:100780001092BC011093BE011093BF0181EC8093C5
:10079000B9010E947F030E94FF001093C00181E015
:1007A0008D8341E050E0BE016B5F7F4F8091B201CD
:1007B0000E94C60297FD0AC08091B20144E050E059
:1007C000BE016F5F7F4F80640E94C6020F900F9042
:1007D0000F900F900F90DF91CF911F9108950F937D
:1007E0001F93CF93DF931F92CDB7DEB782E089834B
:1007F00042E450E06CEA70E080E80E948A020E94C5
:100800007F03DC0112960D911C910115110589F0F1
:10081000D801ED91FC910280F381E02DBE016F5F64
:100820007F4FC801099597FD04C0F8010085118527
:10083000ECCF89810F90DF91CF911F910F91089597
:10084000DC01FB0112962C91129784819581281767
:10085000190641F491818081813A31F49D7F81E0D4
:10086000913009F080E008958132E1F79B3029F45E
:1008700082811F968C9381E008959A3099F7828146
:1008800050968C93F8CFDC01FB0188E4808389E4E7
:10089000818384E482831D969C911D979F709F5B4A
:1008A00093831D968D919C9124E0969587952A952A
:1008B000E1F78F708F5B848385E00895EF92FF925C
:1008C0000F931F93CF93DF93FB012081213871F5A4
:1008D0002381223259F5DC0112964C912481358115
:1008E0004217130619F5EC010B851C85F12CE12C40
:1008F0000115110589F0F8014481558162817381E8
:1009000080E80E948A028F3F980749F0E80EF91E9E
:10091000D8010D911C91ECCF81E08F87C701DF9149
:10092000CF911F910F91FF90EF90089590E080E09C
:10093000F6CFCF93DF93CDB7DEB769970FB6F894B4
:10094000DEBF0FBECDBFFC01DB018C918F5F8C93AE
:100950009E012D5F3F4F8DE0D9011D928A95E9F7E9
:1009600029E0298384E08A8391E09D8383E08E835C
:100970002A8721E22B879C879D879F8722E2288BED
:1009800027E02B8B25E02C8B8E8B20E430E0388FFA
:100990002F8B998F82818B8395858685998B8A8B06
:1009A000838180688D8B49E150E0BE016F5F7F4F8E
:1009B00080E00E948A0269960FB6F894DEBF0FBEEF
:1009C000CDBFDF91CF91089510923401109235017F
:1009D00010923601109237011092330184E089BBE6
:1009E0001092BF001092BE00809372000895809113
:1009F00032018823A1F082E30E94930368E873E147
:100A0000072E000C880B990B0E94D7000E94E4046B
:100A10008091320191E089278093320108958EEC14
:100A20000E94930364E670E0EBCF1F920F920FB623
:100A30000F9211242F933F938F939F93AF93BF9364
:100A400080914D0190914E01A0914F01B0915001C4
:100A500030914C0123E0230F2D3758F50196A11D4D
:100A6000B11D20934C0180934D0190934E01A093B2
:100A70004F01B09350018091510190915201A0918A
:100A80005301B09154010196A11DB11D80935101F4
:100A900090935201A0935301B0935401BF91AF9131
:100AA0009F918F913F912F910F900FBE0F901F90AC
:100AB000189526E8230F0296A11DB11DD2CF1F92D3
:100AC0000F920FB60F9211248F939F938091E100A4
:100AD0009091E100937F9093E10083FF0FC010920B
:100AE000E90091E09093EB001092EC0092E3909378
:100AF000ED001092560198E09093F00082FF22C022
:100B000093E09093E9009091F200992319F09AE311
:100B10009093E80090914901992341F09091490107
:100B2000915090934901911101C05D9A90915501A6
:100B3000992341F090915501915090935501911155
:100B400001C0289A84FF18C08091E2008E7E8160E7
:100B50008093E2008091E1008F7E8093E10080919C
:100B60004A018E7E806180934A019F918F910F9000
:100B70000FBE0F901F90189580FFF7CF8091E20075
:100B80008E7E80618093E2008091E1008E7E809372
:100B9000E10080914A018E7E8160E5CF1F920F9225
:100BA0000FB60F921124CF92DF92EF92FF920F9324
:100BB0001F932F933F934F935F936F937F938F93E5
:100BC0009F93AF93BF93EF93FF93CF93DF93CDB7F3
:100BD000DEB76C97DEBFCDBF1092E9008091E800D0
:100BE00083FF25C068E0CE0145960E94720382EF24
:100BF0008093E8008D8987FF39C09091E80090FFCD
:100C0000FCCF982F907609F034C19E894F89588D7A
:100C10002F89F88C911131C0803861F580914B019A
:100C20008093F1001092F1008EEF8093E8006C96B3
:100C30000FB6F894DEBF0FBECDBFDF91CF91FF910D
:100C4000EF91BF91AF919F918F917F916F915F9144
:100C50004F913F912F911F910F91FF90EF90DF9057
:100C6000CF900F900FBE0F901F9018959EEF90930E
:100C7000E800C7CF1092F100D5CF913059F481111F
:100C8000D3CF4130510581F680914B018D7F809308
:100C90004B01CACF933049F48111C6CF4130510581
:100CA00019F680914B018260F2CF953041F480912A
:100CB000E80080FFFCCF20682093E300B5CF96309A
:100CC00009F0A9C00B8D1C8D22E01092E900109252
:100CD000470110924601F2122EC010924501109267
:100CE00044010E94EF031F8299E09983FA8291E008
:100CF0009E8390EA98879AEF9987209146013091D8
:100D00004701275F3F4F3C832B838D831092E9007F
:100D1000109247011092460110934501009344013F
:100D200049E050E0BE016F5F7F4F80E00E948A0281
:100D30000E94EF0379CF10934501009344010E9474
:100D40007F03DC0112960D911C910115110509F428
:100D500051C1D801ED91FC910480F581E02DBE01D7
:100D60006B5E7F4FC8010995009709F03EC1F801FD
:100D700000851185EACFF3E0FF120EC08F8988232A
:100D800009F440C0823061F440E860E180E191E024
:100D90000E945702811148CF81E28093EB0047CF38
:100DA000813029F440E86BE084E091E0F1CF8330BA
:100DB00099F70E947F03DC011296ED90FC908E0162
:100DC0000F5F1F4F6801E114F10479F0D701ED9135
:100DD000FC910680F781E02DB801C7010995080F45
:100DE000111DF701E084F184EECFD8011C92F601C9
:100DF00001900020E9F73197BF016C197D0940E0AF
:100E0000C601C6CF6EEE70E0FB01449150E080E871
:100E10000E948A0209CF973009F4BECF983021F49E
:100E200081E08093F10000CF993009F0FDCE83700E
:100E300009F0B2CFEDE0F1E081E031E096E32191FD
:100E4000222371F08093E9003093EB00DF011197CA
:100E50002C912093EC009093ED008F5F873079F711
:100E60008EE78093EA001092EA008F898093560102
:100E7000DBCE8B8D9C8D1092E90010924701109271
:100E800046019093450180934401898D811192C060
:100E90008E899D89913A49F4813209F07DCF47E0EE
:100EA00050E064E071E080E0B3CF913209F074CF9C
:100EB000833269F48F89988DB0E0A0E080930001BF
:100EC00090930101A0930201B0930301ADCE803253
:100ED00069F48091E80082FFFCCF67E084E091E054
:100EE0000E9472038BEF8093E8009ECE823209F05D
:100EF0009BCE8F8980930B01EEEFFFE78591949154
:100F00008B3F9C4D51F1E0E0F8E08091040190911D
:100F10000501A0910601B0910701803B9440A10515
:100F2000B105F1F480910B0180FD1AC0EE3F8AE01B
:100F3000F80789F587E797E79183808380916000C0
:100F40008093480188E19BE00FB6F894A8958093C0
:100F500060000FBE9093600067CEEEEFFAE0D5CF51
:100F6000808191818737974709F05ECEA89580915F
:100F700060008861809360008091480180936000E8
:100F8000EE3F2AE0F20789F08091FE0A9091FF0A75
:100F90009183808349CE808191818737980751F270
:100FA0009093FF0A8093FE0AC5CF1092FF0A109219
:100FB000FE0A3ACE0E947F03DC0112960D911C912D
:100FC0000115110509F4E8CED801ED91FC910190CD
:100FD000F081E02DBE016B5E7F4FC8010995811144
:100FE00023CEF80100851185EBCF181619060CF4F5
:100FF0001BCED2CEF1E0FF12BECE62EF70E004CF86
:101000001F920F920FB60F9211242F933F934F937D
:101010005F936F937F938F939F93AF93BF93EF9360
:10102000FF938091340190913501A0913601B091E8
:1010300037010196A11DB11D8093340190933501B4
:10104000A0933601B093370180913401909135011E
:10105000A0913601B091370140915B0150915C0144
:1010600060915D0170915E0184179507A607B7072F
:1010700010F18091330181111EC081E08093330112
:101080008091340190913501A0913601B0913701E2
:10109000841B950BA60BB70B8093340190933501FD
:1010A000A0933601B0933701E0915901F0915A01B4
:1010B000099510923301FF91EF91BF91AF919F91EC
:1010C0008F917F916F915F914F913F912F910F90F1
:1010D0000FBE0F901F901895CF931092620110923F
:1010E000610188EE93E0A0E0B0E08093630190930B
:1010F0006401A0936501B093660187E191E090934C
:10110000600180935F018FEF9FEF90936C0180935C
:101110006B011092D6018091CE01811113C0109203
:10112000C9011092C80181E291E09093CB018093B4
:10113000CA0186E390E09093CD018093CC0181E0D9
:101140008093CE018091C00181112AC0C1E0C0937B
:10115000B301C093B40189EB91E09093B601809301
:10116000B5011092B8011092B70189E291E0909315
:10117000B0018093AF011092BB011092BA0110929E
:10118000BD011092BC01C093BE01C093BF0181ECB0
:101190008093B9010E947F030E94FF00C093C001A9
:1011A000E091BA01F091BB013097B9F488EC91E07D
:1011B0009093BB018093BA018091BC019091BD01D5
:1011C0002091CC013091CD01820F931F9093BD01EE
:1011D0008093BC01CF910895FC018081918100979B
:1011E000D9F788EC91E091838083E6CF789484B539
:1011F000826084BD84B5816084BD85B5826085BD13
:1012000085B5816085BD80916E00816080936E00A0
:101210001092810080918100826080938100809192
:101220008100816080938100809180008160809343
:101230008000809191008260809391008091910064
:1012400081608093910080919000816080939000F4
:101250008091C10084608093C1008091C100826050
:101260008093C1008091C10081608093C100809112
:10127000C30081608093C3008091C000826080932E
:10128000C0008091C20081608093C20080917A008A
:10129000846080937A0080917A00826080937A00E3
:1012A00080917A00816080937A0080917A008068D2
:1012B00080937A001092560110924B0110924A01CD
:1012C0008091D70081608093D70080EA8093D80016
:1012D00089B5806189BD89B5826089BD09B400FE88
:1012E000FDCF0E9411028091D8008F7C8061809395
:1012F000D8008091E000807F8093E0008091E10041
:101300008E7E8093E1008DE08093E200559A209AD2
:1013100064E670E080E090E00E94D7000E94E40460
:10132000C0E0D0E02097F1F30E940000FBCFEE0F69
:0E133000FF1F0590F491E02D0994F894FFCF73
:10133E00FFFFFFFF00E100000000000000C1808100
:10134E00000000000000006F015C03C1028501D2A5
:10135E00019001AE0100000000200499045E0443D8
:02136E00040079
:00000001FF
